S0220000736D6172744D757365756D53686F77636173655F323536305F432E7372656354
S11300007CC00000AAC00000A8C0000085C7000092
S1130010B0C70000A4C20000A0C000009EC0000041
S11300209CC000009AC0000098C0000096C0000068
S113003094C0000092C0000090C000008EC0000078
S11300408CC00000E7C0000088C0000086C000002B
S113005084C0000082C0000080C000007EC0000098
S11300607CC000000C94630978C0000076C00000D6
S113007074C0000072C0000070C000006EC00000B8
S11300806CC000006AC0000068C0000066C00000C8
S113009064C0000062C0000060C000005EC00000D8
S11300A05CC000005AC0000058C0000056C00000E8
S11300B054C0000052C0000050C000000C948109DC
S11300C04CC000004AC0000048C0000046C0000008
S11300D044C0000042C0000040C000003EC0000018
S11300E03CC00000650B680B6C0B700B740B780B39
S11300F07C0B800B840B880B8C0B11241FBECFEF61
S1130100D1E2DEBFCDBF00E00CBF84B780937C0298
S113011014BE0FB6F894A89580916000886180930E
S11301206000109260000FBE12E0A0E0B2E0EEE0CA
S1130130F8E100E00BBF02C007900D92A434B107B0
S1130140D9F722E0A4E4B2E001C01D92AC37B207B3
S1130150E1F70E94A90B0C94050C52CF10925102A6
S113016010924C0210925C0210925D0210925E0298
S113017010925F020895E1E8F0E080818860808356
S1130180808181608083EFE6F0E0808182608083FB
S11301908FE990E090938900809388001092850005
S11301A0109284005398E9E6F0E0808182608083B5
S11301B0EC9A7894D3DF1092520210925302109268
S11301C05402109255020895982381E009F080E0CA
S11301D008958091520290915302A0915402B091DB
S11301E05502883F9A42A105B10598F0B7DF1092F5
S11301F05202109253021092540210925502EAE6EF
S1130200F0E080818260808380818E7F8083109281
S11302105B0208951F920F920FB60F9211248F93D1
S11302209F93AF93BF9380915C0290915D02A091E4
S11302305E02B0915F020196A11DB11D80935C0224
S113024090935D02A0935E02B0935F02809152028C
S113025090915302A0915402B09155020196A11DB0
S1130260B11D8093520290935302A0935402B09311
S11302705502BF91AF919F918F910F900FBE0F9038
S11302801F90189510925C0210925D0210925E020B
S113029010925F0281E080935102089580915C0284
S11302A090915D02A0915E02B0915F02893A914003
S11302B0A105B105D8F080915C0290915D02A091F6
S11302C05E02B0915F028C3D9140A105B10570F4CE
S11302D082E08093510210925A0210924D021092C1
S11302E04E0210924F0210925002089580915C02C7
S11302F090915D02A0915E02B0915F02883C9105ED
S1130300A105B10520F180915C0290915D02A0915C
S11303105E02B0915F028B3F9105A105B105B8F46F
S113032083E08093510281E080934C0280915602D5
S113033090915702A0915802B091590280934D02B6
S113034090934E02A0934F02B0935002089506CFAB
S1130350089510925C0210925D0210925E02109257
S11303605F0281E080935102089580915C02909134
S11303705D02A0915E02B0915F024F97A105B105A5
S113038008F450C080915C0290915D02A0915E02DD
S1130390B0915F0282359105A105B10508F042C014
S11303A080914D0290914E02A0914F02B091500263
S11303B0880F991FAA1FBB1F80934D0290934E0272
S11303C0A0934F02B093500280915A028F5F8093A2
S11303D05A0280915A02803220F482E080935102C2
S11303E0089560914D0270914E0280914F02909158
S11303F05002EADE811102C0B1CE089583E08093F9
S1130400510280914D0290914E02A0914F02B09101
S113041050028093560290935702A0935802B093CF
S11304205902089580915C0290915D02A0915E0250
S1130430B0915F0280399105A105B10508F454C05B
S113044080915C0290915D02A0915E02B0915F0286
S1130450833C9105A105B10508F046C080914D0289
S113046090914E02A0914F02B0915002880F991FB3
S1130470AA1FBB1F816080934D0290934E02A093EC
S11304804F02B093500280915A028F5F80935A02B8
S113049080915A02803220F482E0809351020895C0
S11304A060914D0270914E0280914F0290915002E2
S11304B08BDE811102C052CE089583E080935102F5
S11304C080914D0290914E02A0914F02B091500242
S11304D08093560290935702A0935802B093590206
S11304E081E080934B02089510925A0210924D02BB
S11304F010924E0210924F02109250022FCE089585
S113050010925C0210925D0210925E0210925F02E1
S113051082E080935102089510925C0210925D0271
S113052010925E0210925F021092510280914D026D
S113053090914E02A0914F02B091500280935602C6
S113054090935702A0935802B0935902109252020A
S113055010925302109254021092550208951F9261
S11305600F920FB60F9211240BB60F922F933F9355
S11305704F935F936F937F938F939F93AF93BF93A7
S1130580EF93FF9326DE80915102813071F028F0C1
S11305908230B9F0833009F122C080915B0281116D
S11305A002C070DE1DC0DADD1BC080915B028130A9
S11305B011F4CFDE15C080915B02811111C06EDE93
S11305C00FC080915B02813011F49ADF09C08091E1
S11305D05B02811105C0C9DE03C09EDF01C0BEDD20
S11305E080915B0281110CC0EAE6F0E080818260B8
S11305F0808380818160808381E080935B020EC070
S113060080915B02813051F4EAE6F0E080818260FF
S1130610808380818E7F808310925B02FF91EF91B3
S1130620BF91AF919F918F917F916F915F914F9106
S11306303F912F910F900BBE0F900FBE0F901F9004
S113064018951092B90082E18093B800089594EA55
S11306509093BC00ECEBF0E090819923ECF790913F
S1130660B900987F983011F09031A1F48093BB00C9
S113067084E88093BC00ECEBF0E080818823ECF705
S11306809091B900987F983139F081E0903429F441
S113069080E0089581E0089580E0089584E98093DE
S11306A0BC00ECEBF0E0808184FDFDCF08958093E5
S11306B0BB0084E88093BC00ECEBF0E080818823ED
S11306C0ECF79091B900987F81E0983209F480E0CA
S11306D00895CF93882331F0809144028160809300
S11306E0440205C0809144028E7F8093440280912D
S11306F044028260809344026091440287E08DD179
S113070062E087E0D4D100C064E087E06FD1C82FF5
S113071062E087E0CFD100C062E087E0C8D100C0CA
S113072064E087E063D1C295C07F8F70C82B62E01C
S113073087E0C0D18C2FCF91089580E0CADF882351
S1130740E4F388E090E00197F1F780E0C2CF0895E8
S113075062E087E0ACD100C062E087E0ABC10895FD
S1130760CF93C82F662331F0809144028160809337
S1130770440205C0809144028E7F8093440280919C
S113078044028D7F809344026091440287E045D106
S1130790809144028F7780934402809144028F7B3E
S11307A080934402809144028F7D8093440280911F
S11307B044028F7E80934402CC232CF48091440223
S11307C0806880934402C6FF05C08091440280641F
S11307D080934402C5FF05C08091440280628093E7
S11307E04402C4FF05C080914402806180934402A6
S11307F06091440287E011D1ABDF809144028F778E
S113080080934402809144028F7B809344028091C0
S113081044028F7D80934402809144028F7E8093B2
S11308204402C3FF05C0809144028068809344025F
S1130830C2FF05C080914402806480934402C1FFDA
S113084005C080914402806280934402C0FF05C0C9
S1130850809144028061809344026091440287E065
S1130860DCD076DF809144028061809344028091E1
S113087044028062809344028091440280648093A5
S1130880440280914402806880934402609144024F
S113089087E0C3D0CF910895CF93C82F4EDF60E097
S11308A08C2F5EDFCF910895611103C08058F4CF7F
S11308B008958054F1CF089581E0EECF0895882300
S11308C031F080914402877F8093440205C0809177
S11308D044028860809344026091440287E09DC092
S11308E0089582E0D9CF0895CF93C82F26DFCA3068
S11308F041F4803410F080E001C080E48058CCDF03
S11309000FC0803121F460E080EC2ADF05C080351F
S113091019F460E080E824DF10DF61E08C2F20DF31
S1130920CF910895CF93DF93EC012196FC01808150
S1130930882321F0D9DF89918111FCCFDF91CF91F8
S113094008951F93CF93DF93182F40D01092440241
S11309506091440287E061D080E09AEF0197F1F75B
S11309609091440290629093440290914402906169
S1130970909344026091440287E04FD0E9DEE0E0C6
S1130980FEE43197F1F7E4DEC0E0D1E0FE013197F7
S1130990F1F7DEDEFE013197F1F7909144029F7E7C
S11309A0909344026091440287E037D0D1DE2197CE
S11309B0F1F788E271DF88E06FDF7EDF86E06CDFCD
S11309C0812F6ADFDF91CF911F9108953ADE85E38D
S11309D08A95F1F7000080E090E0FC01E05AFD4FB9
S11309E01082019688309105C1F70895883088F403
S11309F0683088F4E82FF0E0E05AFD4F8081082E3B
S1130A00000C990B02C0959587956A95E2F7817061
S1130A1008958FEF08958FEF0895CF93883080F471
S1130A20C62F982FE82FF0E0E05AFD4F608380E254
S1130A30890F880F0CDE8C2F3ADE30DE80E001C097
S1130A408FEFCF910895CF93DF93883050F56830BE
S1130A5050F5282F30E0F901E05AFD4F90814423EE
S1130A6049F0C1E0D0E002C0CC0FDD1F6A95E2F787
S1130A70C92B09C0C1E0D0E002C0CC0FDD1F6A95CC
S1130A80E2F7C095C923982FF901E05AFD4FC083BE
S1130A9080E2890F880FDBDD8C2F09DEFFDD80E02B
S1130AA003C08FEF01C08FEFDF91CF91089541E034
S1130AB0CACF089540E0C7CF0895E1E0F1E0808116
S1130AC08860808381E88093A0008AE08093A100FD
S1130AD01092A2001092A5001092A4001092A900F6
S1130AE01092A8000895CF93C62F2898880F8E7768
S1130AF0D8D18C2FD6D1289ACF9108952898880FD1
S1130B008E778068CED180E0CCD1289A08956FE0AA
S1130B1081E0E9CF0895FBDF6DE88AE2E4DF6EE36C
S1130B208BE2E1DF6EE18CE2DEDF60E08DE2DBDFB1
S1130B3060E485E1D8DF6DE381E1D5DF84E1DEDFC8
S1130B40982F937021F4682F636084E1CCCF0895CB
S1130B503F924F925F926F927F928F929F92AF9249
S1130B60BF92CF92DF92EF92FF920F931F93CF9396
S1130B70DF93982EF62EE72E442E822E332E580124
S1130B808CE0981609F4BEC0EEE09E1609F4D9C0B4
S1130B9084E0B4DF682F6F7784E0A5DF8AE0AEDFFE
S1130BA0682F60688AE09FDF60E081E09CDF512C61
S1130BB0612C712C4114510461047104D9F010E0CA
S1130BC000E005C010E307E702C010E102E1CF2D09
S1130BD0DE2DC12CD12C7601699189E084DFFFEFF1
S1130BE0CF1ADF0AEF0AFF0AC414D504E604F70497
S1130BF098F302C010E000E0692D81E074DF8CE01E
S1130C00981206C08DE07ADF682F60688DE06BDF94
S1130C1084E074DFF82EC0E0D0E0116009C084E005
S1130C206DDFF82E2196CF3CE7E0DE0709F4A2C081
S1130C308F2D8123A1F3A6C00170F02211F0C2E030
S1130C4001C0C1E0FCE09F12A9C08AE057DF482E32
S1130C508CE054DF282F2770A9F0842D90E00197B1
S1130C60880F991F880F991F880F991F820F911D54
S1130C70092E000CAA0BBB0BF50180839183A28380
S1130C80B38311C0842D90E0880F991F880F991F9A
S1130C90880F991F092E000CAA0BBB0BF50180834A
S1130CA09183A283B383442071F0842D813108F0B1
S1130CB080E1482E512C612C712C411451046104A3
S1130CC0710429F46BC0412C512C32014394082D3A
S1130CD0132DC12CD12C760189E010DFF80181930A
S1130CE08F01FFEFCF1ADF0AEF0AFF0AC414D504FD
S1130CF0E604F70488F352C06CE081E0F4DE10E30C
S1130D0007E780CF84E0FADE682F6F7784E0EBDEBC
S1130D108AE0F4DE682F60688AE0E5DE60E081E066
S1130D20E2DE512C612C712C4114510461047104D4
S1130D3009F048CFE1CF6EE081E0D5DE10E102E1B9
S1130D4067CF84E0DBDE682F6F7784E0CCDE8AE057
S1130D50D5DE682F60688AE0C6DE60E081E0C3DE2D
S1130D60512C612C712C411451046104710409F05B
S1130D702CCFE1CF8DE0C2DE682F6F778DE0B3DE3C
S1130D80C3E00CC08DE0BADE682F6F778DE0ABDE78
S1130D9086E0B4DE8B7109F44FCFC3E08C2FDF9172
S1130DA0CF911F910F91FF90EF90DF90CF90BF9064
S1130DB0AF909F908F907F906F905F904F903F90F7
S1130DC00895EF92FF920F931F93CF93DF9300D078
S1130DD01F92CDB7DEB7182F7B0167E08DE083DE6D
S1130DE0F70110838E010F5F1F4F970141E0B70198
S1130DF08CE0AEDE813059F449815A816B817C816B
S1130E00403151056105710519F083E001C083E0AB
S1130E100F900F900F900F90DF91CF911F910F9132
S1130E20FF90EF900895EF92FF920F931F93CF934B
S1130E30DF9300D01F92CDB7DEB77C0160E08DE078
S1130E4052DE83E9F701808380E281838E010F5FA4
S1130E501F4F970142E0B7018CE07ADE813071F4D4
S1130E60F701A7014C5F5F4F90E021919227E417AF
S1130E70F507D9F7F7012481291383E00F900F9028
S1130E800F900F90DF91CF911F910F91FF90EF90F2
S1130E90089584B1876084B923988CB581658CBD2D
S1130EA008958EBD0DB407FEFDCF8EB5089581E083
S1130EB08093690260E0BAD061E08DE0F5DC82E005
S1130EC092E030CD0895109811981092690260E074
S1130ED080E0ACC0089581B18F6081B982B1807F18
S1130EE082B952985A9AE9E6F0E080818062808360
S1130EF0EA9AE29A53985B9A808180688083EB9A9D
S1130F00E39A789481E08093680261E08DE0CCDC20
S1130F1080E392E007CD08951F920F920FB60F92CF
S1130F2011240BB60F922F933F934F935F936F93BC
S1130F307F938F939F93AF93BF93EF93FF9380918E
S1130F406802813011F4B3DF01C0BDDFFF91EF917E
S1130F50BF91AF919F918F917F916F915F914F91CD
S1130F603F912F910F900BBE0F900FBE0F901F90CB
S1130F7018951F920F920FB60F9211240BB60F9271
S1130F802F933F934F935F936F937F938F939F938D
S1130F90AF93BF93EF93FF9380916802813011F474
S1130FA086DF01C090DFFF91EF91BF91AF919F91D8
S1130FB08F917F916F915F914F913F912F910F90FE
S1130FC00BBE0F900FBE0F901F9018956B9A7398DD
S1130FD082E8809390008AE18093910010929200BD
S1130FE08CE88093970080EA809396001092950095
S1130FF01092940088EB9BE0909399008093980062
S1131000109271008FE288BB78940895811107C013
S113101084EC99E0909399008093980008958CEC67
S113102090E190939900809398000895813091F015
S113103018F08230E9F02AC0662331F0EBE0F1E0E9
S11310408081816080830895EBE0F1E080818E7F70
S113105080830895662331F0EBE0F1E080818260C3
S113106080830895EBE0F1E080818D7F8083089593
S1131070662331F0EBE0F1E08081846080830895A1
S1131080EBE0F1E080818B7F80830895EBE0F1E079
S11310908081887F80830895EAE0F1E08081876021
S11310A08083EBE0F1E08081887F808361E080E0F1
S11310B0BDDF2FEF83ED90E3215080409040E1F7B6
S11310C000C0000060E080E0B1DF61E081E0AEDFFD
S11310D02FEF83ED90E3215080409040E1F700C072
S11310E0000060E081E0A2DF61E082E09FDF2FEF9B
S11310F083ED90E3215080409040E1F700C0000070
S113110060E082E093CF0895813059F018F0823086
S113111079F015C0EBE0F1E0908181E089278083CC
S11311200895EBE0F1E0908182E0892780830895BF
S1131130EBE0F1E0908184E0892780830895EBE07F
S1131140F1E08081887F808308958F929F92BF927F
S1131150CF92DF92EF92FF921F93CF93DF9300D051
S11311601F921F92CDB7DEB74C017B01FE01319671
S113117095E0DF011D929A95E9F7279A2F9ABFEF20
S1131180E1EEF4E0B150E040F040E1F700C00000CF
S11311902F982FEF80EE90E0215080409040E1F7AF
S11311A000C000002F9A2798A5EDAA95F1F700003A
S11311B01F995FC0EFE3F1E03197F1F700C0000041
S11311C01F9B59C08FE391E00197F1F700C0000025
S11311D0DE0111966E0196E0C90ED11C17E0B12C08
S11311E060E0E1E0F0E079EC90E024C021503109C6
S11311F019F443C0272F392F1F9BF8CF20EA2A95D3
S1131200F1F71F9B08C09F01042E02C0220F331F59
S11312100A94E2F7822B272F392F03C0215031097A
S113122071F11F99FBCF4150510920F78D93AC15F3
S1131230BD0521F0412F5B2D862FDCCF279A2F9AF5
S11312408FEF91EEA4E081509040A040E1F700C000
S1131250000029813B818A81820F830F9C81890F41
S11312609D8189130EC0F4013083D7012C9380E053
S113127009C08FEF07C08FEF05C08FEF03C08FEF5A
S113128001C08FEF0F900F900F900F900F90DF9190
S1131290CF911F91FF90EF90DF90CF90BF909F90E0
S11312A08F90089552CF089582E08093C00088E91A
S11312B08093C10087E08093C2001092C5008FEC38
S11312C08093C40008951F920F920FB60F921124B9
S11312D00F900FBE0F901F901895109220018AE076
S11312E0809321018EE4809329018FE1809328016A
S11312F0109225011092240182E080937300789467
S113130008951F920F920FB60F9211240BB60F92ED
S11313102F933F934F935F936F937F938F939F93F9
S1131320AF93BF93EF93FF9380914702909148024C
S113133001969093480280934702209146022F5FC2
S1131340209346028436910594F0809101028F5FC8
S11313508093010281E080934A02809169028111A5
S113136002C081E0D1DE10924802109247028091BF
S113137046028E3178F080916902813031F480E048
S1131380C3DE92B18FE0892782B981E0809349025C
S113139010924602FF91EF91BF91AF919F918F916F
S11313A07F916F915F914F913F912F910F900BBE61
S11313B00F900FBE0F901F901895CF93DF9300D01E
S11313C0CDB7DEB7809101028A3048F1F8946BE71B
S11313D072E08AE692E066DF789460E083E064DAA3
S11313E080916A024AE0BE016F5F7F4F082E000CB5
S11313F0990BD8D1CE01019695DA60E08BE054DAEE
S113140080917B024AE0BE016F5F7F4F082E000C83
S1131410990BC8D1CE01019685DA109201020F9082
S11314200F900F90DF91CF910895CF93C0914A020E
S1131430C13009F03DC06BE672E082E5C2DC813068
S1131440A1F58BE692E0EFDC80916B02853E91F58D
S1131450E5E3F2E0ACE6B2E02CE332E091918D9169
S113146098132AC0E217F307C9F761E082E0DEDDD2
S113147080910002813059F480E0C8DD10920002AE
S113148061E087E011DA85E092E04CDA0BC081E09C
S1131490BDDD81E08093000261E087E005DA89E048
S11314A092E040DA60E082E0C1DD10924A0205C0B9
S11314B0C0E003C0C0E001C0C0E08C2FCF9108950C
S11314C0CF93DF9300D0CDB7DEB78091490281304E
S11314D009F027C180914B02813009F020C110929C
S11314E04B028091560290915702A0915802B091FC
S11314F059020097A105B10509F411C18D3A22E5FD
S113150092072FEFA207B10509F4B8C078F58F3C14
S113151020E392072FEFA207B10509F48FC078F4F6
S11315208F3E20E192072FEFA207B10509F492C084
S1131530873E9841AF4FB10509F484C0A6C08D3BE6
S113154022E492072FEFA207B10509F48FC0853B6F
S11315502AE492072FEFA207B10509F48BC0873C58
S11315609843AF4FB10509F090C078C0873628E999
S113157092072FEFA207B10509F484C0B8F48739A4
S113158028E692072FEFA207B10509F454C0853865
S11315902AE792072FEFA207B10509F457C0853A4D
S11315A09A45AF4FB10509F070C05CC08D3322EC91
S11315B092072FEFA207B10531F18F3120EE920788
S11315C02FEFA207B10539F08735984AAF4FB1051F
S11315D009F05BC00DC080914502811103C08BE00E
S11315E080934502809145028150809345024DC00D
S11315F0809145028F5F8B3018F48093450245C07B
S11316001092450242C08091680290916802816004
S113161089278093680261E08DE046D98091680251
S1131620811105C050DC8DE092E07CD92EC080E3AE
S113163092E078D92AC01092450227C081E08093B5
S1131640450223C082E0809345021FC083E080935B
S113165045021BC084E08093450217C085E0809357
S1131660450213C086E0809345020FC087E0809353
S113167045020BC088E08093450207C089E080934F
S1131680450203C08AE08093450261E082E00CD900
S113169081E192E047D961E082E006D98091450278
S11316A04AE0BE016F5F7F4F90E07CD0CE0101968F
S11316B039D98091450290E08B30910580F5FC0189
S11316C08827EE58FF4F8F4F65C01092A80027C09F
S11316D08AE18093A80023C083E38093A8001FC0FD
S11316E08DE48093A8001BC086E68093A80017C0F1
S11316F080E88093A80013C089E98093A8000FC0F4
S113170083EB8093A8000BC08CEC8093A80007C0E7
S113171086EE8093A80003C08FEF8093A8001092F8
S113172049020F900F900F90DF91CF91089560E0E0
S113173080E0BAD884E192E0F5D860E085E0B4D8DE
S11317408FEDD2D861E080E0AFD883E292E0EAC8BE
S11317500895AADD8CE0F5D880E0B1D8C2D8E7DFDF
S11317609BDCBBDD96DBD7D931DC81E04FDCB3DB1E
S11317700E94BB00A2D998E288E10FB6F894A8951C
S1131780809360000FBE9093600017DE4EDE98DEFB
S1131790A895FBCFEE0FFF1F881F8BBF0790F69114
S11317A0E02D1994BB274A3031F4992322F4BDE289
S11317B0909581959F4F01C0BB27FB015527AA2710
S11317C0880F991FAA1FA41710F0A41B83955051CA
S11317D0B9F7A05DAA3308F0A95DA193009779F742
S11317E0B111B1931192CB0100C0DC01FC01672F50
S11317F071917723E1F7329704C07C916D937083E4
S11118006291AE17BF07C8F30895F894FFCFA6
S113180E010A4F4E004F5045004C4F43004449537C
S113181E0020200020543A383820432020483A38FB
S113182E3825004C3A302020443A4C4F4320413A5C
S113183E454E2000E5DC0788B600000000000000DD
S107184E0000000092
S9030000FC
